{
  "_format": "hh-sol-artifact-1",
  "contractName": "BusdWallet",
  "sourceName": "contracts/BusdWallet.sol",
  "abi": [
    {
      "inputs": [
        {
          "internalType": "address",
          "name": "_busdAddress",
          "type": "address"
        }
      ],
      "stateMutability": "nonpayable",
      "type": "constructor"
    },
    {
      "anonymous": false,
      "inputs": [
        {
          "indexed": true,
          "internalType": "address",
          "name": "to",
          "type": "address"
        },
        {
          "indexed": true,
          "internalType": "address",
          "name": "from",
          "type": "address"
        },
        {
          "indexed": false,
          "internalType": "uint256",
          "name": "amount",
          "type": "uint256"
        }
      ],
      "name": "Transfer",
      "type": "event"
    },
    {
      "inputs": [
        {
          "internalType": "address",
          "name": "spender",
          "type": "address"
        },
        {
          "internalType": "uint256",
          "name": "amount",
          "type": "uint256"
        }
      ],
      "name": "approveToken",
      "outputs": [],
      "stateMutability": "nonpayable",
      "type": "function"
    },
    {
      "inputs": [
        {
          "internalType": "address",
          "name": "client",
          "type": "address"
        }
      ],
      "name": "balanceToken",
      "outputs": [
        {
          "internalType": "uint256",
          "name": "",
          "type": "uint256"
        }
      ],
      "stateMutability": "view",
      "type": "function"
    },
    {
      "inputs": [],
      "name": "busdToken",
      "outputs": [
        {
          "internalType": "contract IBEP20",
          "name": "",
          "type": "address"
        }
      ],
      "stateMutability": "view",
      "type": "function"
    },
    {
      "inputs": [],
      "name": "getBUSDBalanceContract",
      "outputs": [
        {
          "internalType": "uint256",
          "name": "",
          "type": "uint256"
        }
      ],
      "stateMutability": "view",
      "type": "function"
    },
    {
      "inputs": [
        {
          "internalType": "uint256",
          "name": "amount",
          "type": "uint256"
        }
      ],
      "name": "receiveToken",
      "outputs": [],
      "stateMutability": "nonpayable",
      "type": "function"
    },
    {
      "inputs": [
        {
          "internalType": "address",
          "name": "to",
          "type": "address"
        },
        {
          "internalType": "uint256",
          "name": "amount",
          "type": "uint256"
        }
      ],
      "name": "sendToken",
      "outputs": [],
      "stateMutability": "nonpayable",
      "type": "function"
    }
  ],
  "bytecode": "0x608060405234801561001057600080fd5b50604051610ccd380380610ccd833981810160405281019061003291906100db565b806000806101000a81548173ffffffffffffffffffffffffffffffffffffffff021916908373ffffffffffffffffffffffffffffffffffffffff16021790555050610108565b600080fd5b600073ffffffffffffffffffffffffffffffffffffffff82169050919050565b60006100a88261007d565b9050919050565b6100b88161009d565b81146100c357600080fd5b50565b6000815190506100d5816100af565b92915050565b6000602082840312156100f1576100f0610078565b5b60006100ff848285016100c6565b91505092915050565b610bb6806101176000396000f3fe608060405234801561001057600080fd5b50600436106100625760003560e01c8063022fc88b1461006757806304599012146100835780632d3b1f85146100b357806337df00c9146100d1578063412664ae146100ed578063de0e701414610109575b600080fd5b610081600480360381019061007c9190610791565b610127565b005b61009d600480360381019061009891906107d1565b610239565b6040516100aa919061080d565b60405180910390f35b6100bb610282565b6040516100c8919061080d565b60405180910390f35b6100eb60048036038101906100e69190610828565b610324565b005b61010760048036038101906101029190610791565b610483565b005b6101116106d4565b60405161011e91906108b4565b60405180910390f35b600073ffffffffffffffffffffffffffffffffffffffff168273ffffffffffffffffffffffffffffffffffffffff1603610196576040517f08c379a000000000000000000000000000000000000000000000000000000000815260040161018d9061092c565b60405180910390fd5b60008054906101000a900473ffffffffffffffffffffffffffffffffffffffff1673ffffffffffffffffffffffffffffffffffffffff1663095ea7b383836040518363ffffffff1660e01b81526004016101f192919061095b565b6020604051808303816000875af1158015610210573d6000803e3d6000fd5b505050506040513d601f19601f8201168201806040525081019061023491906109bc565b505050565b6000600160008373ffffffffffffffffffffffffffffffffffffffff1673ffffffffffffffffffffffffffffffffffffffff168152602001908152602001600020549050919050565b60008060009054906101000a900473ffffffffffffffffffffffffffffffffffffffff1673ffffffffffffffffffffffffffffffffffffffff166370a08231306040518263ffffffff1660e01b81526004016102de91906109e9565b602060405180830381865afa1580156102fb573d6000803e3d6000fd5b505050506040513d601f19601f8201168201806040525081019061031f9190610a19565b905090565b60008054906101000a900473ffffffffffffffffffffffffffffffffffffffff1673ffffffffffffffffffffffffffffffffffffffff166323b872dd3330846040518463ffffffff1660e01b815260040161038193929190610a46565b6020604051808303816000875af11580156103a0573d6000803e3d6000fd5b505050506040513d601f19601f820116820180604052508101906103c491906109bc565b5080600160003373ffffffffffffffffffffffffffffffffffffffff1673ffffffffffffffffffffffffffffffffffffffff16815260200190815260200160002060008282546104149190610aac565b925050819055503373ffffffffffffffffffffffffffffffffffffffff163073ffffffffffffffffffffffffffffffffffffffff167fddf252ad1be2c89b69c2b068fc378daa952ba7f163c4a11628f55a4df523b3ef83604051610478919061080d565b60405180910390a350565b600073ffffffffffffffffffffffffffffffffffffffff168273ffffffffffffffffffffffffffffffffffffffff16036104f2576040517f08c379a00000000000000000000000000000000000000000000000000000000081526004016104e99061092c565b60405180910390fd5b600160003373ffffffffffffffffffffffffffffffffffffffff1673ffffffffffffffffffffffffffffffffffffffff16815260200190815260200160002054811115610574576040517f08c379a000000000000000000000000000000000000000000000000000000000815260040161056b90610b2c565b60405180910390fd5b80600160003373ffffffffffffffffffffffffffffffffffffffff1673ffffffffffffffffffffffffffffffffffffffff16815260200190815260200160002060008282546105c39190610b4c565b9250508190555060008054906101000a900473ffffffffffffffffffffffffffffffffffffffff1673ffffffffffffffffffffffffffffffffffffffff166323b872dd3084846040518463ffffffff1660e01b815260040161062793929190610a46565b6020604051808303816000875af1158015610646573d6000803e3d6000fd5b505050506040513d601f19601f8201168201806040525081019061066a91906109bc565b508173ffffffffffffffffffffffffffffffffffffffff163073ffffffffffffffffffffffffffffffffffffffff167fddf252ad1be2c89b69c2b068fc378daa952ba7f163c4a11628f55a4df523b3ef836040516106c8919061080d565b60405180910390a35050565b60008054906101000a900473ffffffffffffffffffffffffffffffffffffffff1681565b600080fd5b600073ffffffffffffffffffffffffffffffffffffffff82169050919050565b6000610728826106fd565b9050919050565b6107388161071d565b811461074357600080fd5b50565b6000813590506107558161072f565b92915050565b6000819050919050565b61076e8161075b565b811461077957600080fd5b50565b60008135905061078b81610765565b92915050565b600080604083850312156107a8576107a76106f8565b5b60006107b685828601610746565b92505060206107c78582860161077c565b9150509250929050565b6000602082840312156107e7576107e66106f8565b5b60006107f584828501610746565b91505092915050565b6108078161075b565b82525050565b600060208201905061082260008301846107fe565b92915050565b60006020828403121561083e5761083d6106f8565b5b600061084c8482850161077c565b91505092915050565b6000819050919050565b600061087a610875610870846106fd565b610855565b6106fd565b9050919050565b600061088c8261085f565b9050919050565b600061089e82610881565b9050919050565b6108ae81610893565b82525050565b60006020820190506108c960008301846108a5565b92915050565b600082825260208201905092915050565b7f496e76616c696420416464726573730000000000000000000000000000000000600082015250565b6000610916600f836108cf565b9150610921826108e0565b602082019050919050565b6000602082019050818103600083015261094581610909565b9050919050565b6109558161071d565b82525050565b6000604082019050610970600083018561094c565b61097d60208301846107fe565b9392505050565b60008115159050919050565b61099981610984565b81146109a457600080fd5b50565b6000815190506109b681610990565b92915050565b6000602082840312156109d2576109d16106f8565b5b60006109e0848285016109a7565b91505092915050565b60006020820190506109fe600083018461094c565b92915050565b600081519050610a1381610765565b92915050565b600060208284031215610a2f57610a2e6106f8565b5b6000610a3d84828501610a04565b91505092915050565b6000606082019050610a5b600083018661094c565b610a68602083018561094c565b610a7560408301846107fe565b949350505050565b7f4e487b7100000000000000000000000000000000000000000000000000000000600052601160045260246000fd5b6000610ab78261075b565b9150610ac28361075b565b9250828201905080821115610ada57610ad9610a7d565b5b92915050565b7f496e737566666963656e742046756e6400000000000000000000000000000000600082015250565b6000610b166010836108cf565b9150610b2182610ae0565b602082019050919050565b60006020820190508181036000830152610b4581610b09565b9050919050565b6000610b578261075b565b9150610b628361075b565b9250828203905081811115610b7a57610b79610a7d565b5b9291505056fea264697066735822122099b3ff4136eac3a7d9e88be32db61d5b6773476b204109bd18b01322b000cd0364736f6c63430008130033",
  "linkReferences": {},
  "deployedLinkReferences": {}
}