{
  "_format": "hh-sol-artifact-1",
  "contractName": "BusdWallet",
  "sourceName": "contracts/BusdWallet.sol",
  "abi": [
    {
      "inputs": [
        {
          "internalType": "address",
          "name": "_busdAddress",
          "type": "address"
        }
      ],
      "stateMutability": "nonpayable",
      "type": "constructor"
    },
    {
      "anonymous": false,
      "inputs": [
        {
          "indexed": true,
          "internalType": "address",
          "name": "to",
          "type": "address"
        },
        {
          "indexed": true,
          "internalType": "address",
          "name": "from",
          "type": "address"
        },
        {
          "indexed": false,
          "internalType": "uint256",
          "name": "amount",
          "type": "uint256"
        }
      ],
      "name": "Transfer",
      "type": "event"
    },
    {
      "inputs": [
        {
          "internalType": "address",
          "name": "client",
          "type": "address"
        }
      ],
      "name": "balanceToken",
      "outputs": [
        {
          "internalType": "uint256",
          "name": "",
          "type": "uint256"
        }
      ],
      "stateMutability": "view",
      "type": "function"
    },
    {
      "inputs": [],
      "name": "busdToken",
      "outputs": [
        {
          "internalType": "contract IBEP20",
          "name": "",
          "type": "address"
        }
      ],
      "stateMutability": "view",
      "type": "function"
    },
    {
      "inputs": [
        {
          "internalType": "address",
          "name": "client",
          "type": "address"
        }
      ],
      "name": "getBUSDBalance",
      "outputs": [
        {
          "internalType": "uint256",
          "name": "",
          "type": "uint256"
        }
      ],
      "stateMutability": "view",
      "type": "function"
    },
    {
      "inputs": [],
      "name": "getBUSDBalanceContract",
      "outputs": [
        {
          "internalType": "uint256",
          "name": "",
          "type": "uint256"
        }
      ],
      "stateMutability": "view",
      "type": "function"
    },
    {
      "inputs": [
        {
          "internalType": "uint256",
          "name": "amount",
          "type": "uint256"
        }
      ],
      "name": "receiveToken",
      "outputs": [],
      "stateMutability": "nonpayable",
      "type": "function"
    },
    {
      "inputs": [
        {
          "internalType": "address",
          "name": "to",
          "type": "address"
        },
        {
          "internalType": "uint256",
          "name": "amount",
          "type": "uint256"
        }
      ],
      "name": "sendToken",
      "outputs": [],
      "stateMutability": "nonpayable",
      "type": "function"
    }
  ],
  "bytecode": "0x608060405234801561001057600080fd5b50604051610c71380380610c71833981810160405281019061003291906100db565b806000806101000a81548173ffffffffffffffffffffffffffffffffffffffff021916908373ffffffffffffffffffffffffffffffffffffffff16021790555050610108565b600080fd5b600073ffffffffffffffffffffffffffffffffffffffff82169050919050565b60006100a88261007d565b9050919050565b6100b88161009d565b81146100c357600080fd5b50565b6000815190506100d5816100af565b92915050565b6000602082840312156100f1576100f0610078565b5b60006100ff848285016100c6565b91505092915050565b610b5a806101176000396000f3fe608060405234801561001057600080fd5b50600436106100625760003560e01c806304599012146100675780632236d218146100975780632d3b1f85146100c757806337df00c9146100e5578063412664ae14610101578063de0e70141461011d575b600080fd5b610081600480360381019061007c91906106ff565b61013b565b60405161008e9190610745565b60405180910390f35b6100b160048036038101906100ac91906106ff565b610184565b6040516100be9190610745565b60405180910390f35b6100cf610228565b6040516100dc9190610745565b60405180910390f35b6100ff60048036038101906100fa919061078c565b6102ca565b005b61011b600480360381019061011691906107b9565b610429565b005b610125610678565b6040516101329190610858565b60405180910390f35b6000600160008373ffffffffffffffffffffffffffffffffffffffff1673ffffffffffffffffffffffffffffffffffffffff168152602001908152602001600020549050919050565b60008060009054906101000a900473ffffffffffffffffffffffffffffffffffffffff1673ffffffffffffffffffffffffffffffffffffffff166370a08231836040518263ffffffff1660e01b81526004016101e09190610882565b602060405180830381865afa1580156101fd573d6000803e3d6000fd5b505050506040513d601f19601f8201168201806040525081019061022191906108b2565b9050919050565b60008060009054906101000a900473ffffffffffffffffffffffffffffffffffffffff1673ffffffffffffffffffffffffffffffffffffffff166370a08231306040518263ffffffff1660e01b81526004016102849190610882565b602060405180830381865afa1580156102a1573d6000803e3d6000fd5b505050506040513d601f19601f820116820180604052508101906102c591906108b2565b905090565b60008054906101000a900473ffffffffffffffffffffffffffffffffffffffff1673ffffffffffffffffffffffffffffffffffffffff166323b872dd3330846040518463ffffffff1660e01b8152600401610327939291906108df565b6020604051808303816000875af1158015610346573d6000803e3d6000fd5b505050506040513d601f19601f8201168201806040525081019061036a919061094e565b5080600160003373ffffffffffffffffffffffffffffffffffffffff1673ffffffffffffffffffffffffffffffffffffffff16815260200190815260200160002060008282546103ba91906109aa565b925050819055503373ffffffffffffffffffffffffffffffffffffffff163073ffffffffffffffffffffffffffffffffffffffff167fddf252ad1be2c89b69c2b068fc378daa952ba7f163c4a11628f55a4df523b3ef8360405161041e9190610745565b60405180910390a350565b600073ffffffffffffffffffffffffffffffffffffffff168273ffffffffffffffffffffffffffffffffffffffff1603610498576040517f08c379a000000000000000000000000000000000000000000000000000000000815260040161048f90610a3b565b60405180910390fd5b600160003373ffffffffffffffffffffffffffffffffffffffff1673ffffffffffffffffffffffffffffffffffffffff1681526020019081526020016000205481111561051a576040517f08c379a000000000000000000000000000000000000000000000000000000000815260040161051190610aa7565b60405180910390fd5b80600160003373ffffffffffffffffffffffffffffffffffffffff1673ffffffffffffffffffffffffffffffffffffffff16815260200190815260200160002060008282546105699190610ac7565b9250508190555060008054906101000a900473ffffffffffffffffffffffffffffffffffffffff1673ffffffffffffffffffffffffffffffffffffffff1663a9059cbb83836040518363ffffffff1660e01b81526004016105cb929190610afb565b6020604051808303816000875af11580156105ea573d6000803e3d6000fd5b505050506040513d601f19601f8201168201806040525081019061060e919061094e565b503373ffffffffffffffffffffffffffffffffffffffff168273ffffffffffffffffffffffffffffffffffffffff167fddf252ad1be2c89b69c2b068fc378daa952ba7f163c4a11628f55a4df523b3ef8360405161066c9190610745565b60405180910390a35050565b60008054906101000a900473ffffffffffffffffffffffffffffffffffffffff1681565b600080fd5b600073ffffffffffffffffffffffffffffffffffffffff82169050919050565b60006106cc826106a1565b9050919050565b6106dc816106c1565b81146106e757600080fd5b50565b6000813590506106f9816106d3565b92915050565b6000602082840312156107155761071461069c565b5b6000610723848285016106ea565b91505092915050565b6000819050919050565b61073f8161072c565b82525050565b600060208201905061075a6000830184610736565b92915050565b6107698161072c565b811461077457600080fd5b50565b60008135905061078681610760565b92915050565b6000602082840312156107a2576107a161069c565b5b60006107b084828501610777565b91505092915050565b600080604083850312156107d0576107cf61069c565b5b60006107de858286016106ea565b92505060206107ef85828601610777565b9150509250929050565b6000819050919050565b600061081e610819610814846106a1565b6107f9565b6106a1565b9050919050565b600061083082610803565b9050919050565b600061084282610825565b9050919050565b61085281610837565b82525050565b600060208201905061086d6000830184610849565b92915050565b61087c816106c1565b82525050565b60006020820190506108976000830184610873565b92915050565b6000815190506108ac81610760565b92915050565b6000602082840312156108c8576108c761069c565b5b60006108d68482850161089d565b91505092915050565b60006060820190506108f46000830186610873565b6109016020830185610873565b61090e6040830184610736565b949350505050565b60008115159050919050565b61092b81610916565b811461093657600080fd5b50565b60008151905061094881610922565b92915050565b6000602082840312156109645761096361069c565b5b600061097284828501610939565b91505092915050565b7f4e487b7100000000000000000000000000000000000000000000000000000000600052601160045260246000fd5b60006109b58261072c565b91506109c08361072c565b92508282019050808211156109d8576109d761097b565b5b92915050565b600082825260208201905092915050565b7f496e76616c696420416464726573730000000000000000000000000000000000600082015250565b6000610a25600f836109de565b9150610a30826109ef565b602082019050919050565b60006020820190508181036000830152610a5481610a18565b9050919050565b7f496e737566666963656e742046756e6400000000000000000000000000000000600082015250565b6000610a916010836109de565b9150610a9c82610a5b565b602082019050919050565b60006020820190508181036000830152610ac081610a84565b9050919050565b6000610ad28261072c565b9150610add8361072c565b9250828203905081811115610af557610af461097b565b5b92915050565b6000604082019050610b106000830185610873565b610b1d6020830184610736565b939250505056fea2646970667358221220f8aeb823fe6e760fa7300dade708a46fc6fa691a7bd04e7c69f842536cb2a4b664736f6c63430008130033",
  "linkReferences": {},
  "deployedLinkReferences": {}
}