{
  "_format": "hh-sol-artifact-1",
  "contractName": "BusdWallet",
  "sourceName": "contracts/BusdWallet.sol",
  "abi": [
    {
      "inputs": [
        {
          "internalType": "address",
          "name": "_busdAddress",
          "type": "address"
        }
      ],
      "stateMutability": "nonpayable",
      "type": "constructor"
    },
    {
      "inputs": [],
      "name": "busdToken",
      "outputs": [
        {
          "internalType": "contract IBEP20",
          "name": "",
          "type": "address"
        }
      ],
      "stateMutability": "view",
      "type": "function"
    },
    {
      "inputs": [
        {
          "internalType": "address",
          "name": "to",
          "type": "address"
        },
        {
          "internalType": "uint256",
          "name": "amount",
          "type": "uint256"
        }
      ],
      "name": "sendToken",
      "outputs": [],
      "stateMutability": "nonpayable",
      "type": "function"
    }
  ],
  "bytecode": "0x608060405234801561001057600080fd5b506040516106703803806106708339818101604052810190610032919061014a565b600073ffffffffffffffffffffffffffffffffffffffff168173ffffffffffffffffffffffffffffffffffffffff16036100a1576040517f08c379a0000000000000000000000000000000000000000000000000000000008152600401610098906101d4565b60405180910390fd5b806000806101000a81548173ffffffffffffffffffffffffffffffffffffffff021916908373ffffffffffffffffffffffffffffffffffffffff160217905550506101f4565b600080fd5b600073ffffffffffffffffffffffffffffffffffffffff82169050919050565b6000610117826100ec565b9050919050565b6101278161010c565b811461013257600080fd5b50565b6000815190506101448161011e565b92915050565b6000602082840312156101605761015f6100e7565b5b600061016e84828501610135565b91505092915050565b600082825260208201905092915050565b7f496e76616c696420416464726573730000000000000000000000000000000000600082015250565b60006101be600f83610177565b91506101c982610188565b602082019050919050565b600060208201905081810360008301526101ed816101b1565b9050919050565b61046d806102036000396000f3fe608060405234801561001057600080fd5b50600436106100365760003560e01c8063412664ae1461003b578063de0e701414610057575b600080fd5b61005560048036038101906100509190610246565b610075565b005b61005f610189565b60405161006c91906102e5565b60405180910390f35b600073ffffffffffffffffffffffffffffffffffffffff168273ffffffffffffffffffffffffffffffffffffffff16036100e4576040517f08c379a00000000000000000000000000000000000000000000000000000000081526004016100db9061035d565b60405180910390fd5b60008054906101000a900473ffffffffffffffffffffffffffffffffffffffff1673ffffffffffffffffffffffffffffffffffffffff166323b872dd3384846040518463ffffffff1660e01b81526004016101419392919061039b565b6020604051808303816000875af1158015610160573d6000803e3d6000fd5b505050506040513d601f19601f82011682018060405250810190610184919061040a565b505050565b60008054906101000a900473ffffffffffffffffffffffffffffffffffffffff1681565b600080fd5b600073ffffffffffffffffffffffffffffffffffffffff82169050919050565b60006101dd826101b2565b9050919050565b6101ed816101d2565b81146101f857600080fd5b50565b60008135905061020a816101e4565b92915050565b6000819050919050565b61022381610210565b811461022e57600080fd5b50565b6000813590506102408161021a565b92915050565b6000806040838503121561025d5761025c6101ad565b5b600061026b858286016101fb565b925050602061027c85828601610231565b9150509250929050565b6000819050919050565b60006102ab6102a66102a1846101b2565b610286565b6101b2565b9050919050565b60006102bd82610290565b9050919050565b60006102cf826102b2565b9050919050565b6102df816102c4565b82525050565b60006020820190506102fa60008301846102d6565b92915050565b600082825260208201905092915050565b7f496e76616c696420416464726573730000000000000000000000000000000000600082015250565b6000610347600f83610300565b915061035282610311565b602082019050919050565b600060208201905081810360008301526103768161033a565b9050919050565b610386816101d2565b82525050565b61039581610210565b82525050565b60006060820190506103b0600083018661037d565b6103bd602083018561037d565b6103ca604083018461038c565b949350505050565b60008115159050919050565b6103e7816103d2565b81146103f257600080fd5b50565b600081519050610404816103de565b92915050565b6000602082840312156104205761041f6101ad565b5b600061042e848285016103f5565b9150509291505056fea264697066735822122050e00fd9dbe1e1209272ff4c2a962090b863084f264f1633c20ca4a0cdf68eff64736f6c63430008130033",
  "linkReferences": {},
  "deployedLinkReferences": {}
}