{
  "_format": "hh-sol-artifact-1",
  "contractName": "TokenContract",
  "sourceName": "contracts/TokenContract.sol",
  "abi": [
    {
      "inputs": [],
      "stateMutability": "nonpayable",
      "type": "constructor"
    },
    {
      "anonymous": false,
      "inputs": [
        {
          "indexed": true,
          "internalType": "address",
          "name": "owner",
          "type": "address"
        },
        {
          "indexed": true,
          "internalType": "address",
          "name": "spender",
          "type": "address"
        },
        {
          "indexed": false,
          "internalType": "uint256",
          "name": "value",
          "type": "uint256"
        }
      ],
      "name": "Approval",
      "type": "event"
    },
    {
      "anonymous": false,
      "inputs": [
        {
          "indexed": true,
          "internalType": "address",
          "name": "from",
          "type": "address"
        },
        {
          "indexed": true,
          "internalType": "address",
          "name": "to",
          "type": "address"
        },
        {
          "indexed": false,
          "internalType": "uint256",
          "name": "value",
          "type": "uint256"
        }
      ],
      "name": "Transfer",
      "type": "event"
    },
    {
      "inputs": [
        {
          "internalType": "address",
          "name": "_owner",
          "type": "address"
        },
        {
          "internalType": "address",
          "name": "spender",
          "type": "address"
        }
      ],
      "name": "allowance",
      "outputs": [
        {
          "internalType": "uint256",
          "name": "",
          "type": "uint256"
        }
      ],
      "stateMutability": "view",
      "type": "function"
    },
    {
      "inputs": [
        {
          "internalType": "address",
          "name": "spender",
          "type": "address"
        },
        {
          "internalType": "uint256",
          "name": "amount",
          "type": "uint256"
        }
      ],
      "name": "approve",
      "outputs": [
        {
          "internalType": "bool",
          "name": "",
          "type": "bool"
        }
      ],
      "stateMutability": "nonpayable",
      "type": "function"
    },
    {
      "inputs": [
        {
          "internalType": "address",
          "name": "tokenAddress",
          "type": "address"
        }
      ],
      "name": "balanceOf",
      "outputs": [
        {
          "internalType": "uint256",
          "name": "",
          "type": "uint256"
        }
      ],
      "stateMutability": "view",
      "type": "function"
    },
    {
      "inputs": [
        {
          "internalType": "address",
          "name": "",
          "type": "address"
        }
      ],
      "name": "balances",
      "outputs": [
        {
          "internalType": "uint256",
          "name": "",
          "type": "uint256"
        }
      ],
      "stateMutability": "view",
      "type": "function"
    },
    {
      "inputs": [],
      "name": "decimals",
      "outputs": [
        {
          "internalType": "uint256",
          "name": "",
          "type": "uint256"
        }
      ],
      "stateMutability": "view",
      "type": "function"
    },
    {
      "inputs": [],
      "name": "name",
      "outputs": [
        {
          "internalType": "string",
          "name": "",
          "type": "string"
        }
      ],
      "stateMutability": "view",
      "type": "function"
    },
    {
      "inputs": [],
      "name": "owner",
      "outputs": [
        {
          "internalType": "address",
          "name": "",
          "type": "address"
        }
      ],
      "stateMutability": "view",
      "type": "function"
    },
    {
      "inputs": [],
      "name": "symbol",
      "outputs": [
        {
          "internalType": "string",
          "name": "",
          "type": "string"
        }
      ],
      "stateMutability": "view",
      "type": "function"
    },
    {
      "inputs": [],
      "name": "totalSupply",
      "outputs": [
        {
          "internalType": "uint256",
          "name": "",
          "type": "uint256"
        }
      ],
      "stateMutability": "view",
      "type": "function"
    },
    {
      "inputs": [
        {
          "internalType": "address",
          "name": "to",
          "type": "address"
        },
        {
          "internalType": "uint256",
          "name": "tokens",
          "type": "uint256"
        }
      ],
      "name": "transfer",
      "outputs": [
        {
          "internalType": "bool",
          "name": "",
          "type": "bool"
        }
      ],
      "stateMutability": "nonpayable",
      "type": "function"
    },
    {
      "inputs": [
        {
          "internalType": "address",
          "name": "from",
          "type": "address"
        },
        {
          "internalType": "address",
          "name": "to",
          "type": "address"
        },
        {
          "internalType": "uint256",
          "name": "amount",
          "type": "uint256"
        }
      ],
      "name": "transferFrom",
      "outputs": [
        {
          "internalType": "bool",
          "name": "",
          "type": "bool"
        }
      ],
      "stateMutability": "nonpayable",
      "type": "function"
    }
  ],
  "bytecode": "0x60806040523480156200001157600080fd5b50336000806101000a81548173ffffffffffffffffffffffffffffffffffffffff021916908373ffffffffffffffffffffffffffffffffffffffff1602179055506040518060400160405280600981526020017f424e4220546f6b656e000000000000000000000000000000000000000000000081525060019081620000989190620003e1565b506040518060400160405280600481526020017f424e42540000000000000000000000000000000000000000000000000000000081525060029081620000df9190620003e1565b5060126003819055506a084595161401484a000000600481905550600454600560008060009054906101000a900473ffffffffffffffffffffffffffffffffffffffff1673ffffffffffffffffffffffffffffffffffffffff1673ffffffffffffffffffffffffffffffffffffffff16815260200190815260200160002081905550620004c8565b600081519050919050565b7f4e487b7100000000000000000000000000000000000000000000000000000000600052604160045260246000fd5b7f4e487b7100000000000000000000000000000000000000000000000000000000600052602260045260246000fd5b60006002820490506001821680620001e957607f821691505b602082108103620001ff57620001fe620001a1565b5b50919050565b60008190508160005260206000209050919050565b60006020601f8301049050919050565b600082821b905092915050565b600060088302620002697fffffffffffffffffffffffffffffffffffffffffffffffffffffffffffffffff826200022a565b6200027586836200022a565b95508019841693508086168417925050509392505050565b6000819050919050565b6000819050919050565b6000620002c2620002bc620002b6846200028d565b62000297565b6200028d565b9050919050565b6000819050919050565b620002de83620002a1565b620002f6620002ed82620002c9565b84845462000237565b825550505050565b600090565b6200030d620002fe565b6200031a818484620002d3565b505050565b5b8181101562000342576200033660008262000303565b60018101905062000320565b5050565b601f82111562000391576200035b8162000205565b62000366846200021a565b8101602085101562000376578190505b6200038e62000385856200021a565b8301826200031f565b50505b505050565b600082821c905092915050565b6000620003b66000198460080262000396565b1980831691505092915050565b6000620003d18383620003a3565b9150826002028217905092915050565b620003ec8262000167565b67ffffffffffffffff81111562000408576200040762000172565b5b620004148254620001d0565b6200042182828562000346565b600060209050601f83116001811462000459576000841562000444578287015190505b620004508582620003c3565b865550620004c0565b601f198416620004698662000205565b60005b8281101562000493578489015182556001820191506020850194506020810190506200046c565b86831015620004b35784890151620004af601f891682620003a3565b8355505b6001600288020188555050505b505050505050565b6110e180620004d86000396000f3fe608060405234801561001057600080fd5b50600436106100a95760003560e01c8063313ce56711610071578063313ce5671461017a57806370a08231146101985780638da5cb5b146101c857806395d89b41146101e6578063a9059cbb14610204578063dd62ed3e14610234576100a9565b806306fdde03146100ae578063095ea7b3146100cc57806318160ddd146100fc57806323b872dd1461011a57806327e235e31461014a575b600080fd5b6100b6610264565b6040516100c39190610c2b565b60405180910390f35b6100e660048036038101906100e19190610ce6565b6102f2565b6040516100f39190610d41565b60405180910390f35b6101046104b3565b6040516101119190610d6b565b60405180910390f35b610134600480360381019061012f9190610d86565b6104b9565b6040516101419190610d41565b60405180910390f35b610164600480360381019061015f9190610dd9565b6107e6565b6040516101719190610d6b565b60405180910390f35b6101826107fe565b60405161018f9190610d6b565b60405180910390f35b6101b260048036038101906101ad9190610dd9565b610804565b6040516101bf9190610d6b565b60405180910390f35b6101d061084d565b6040516101dd9190610e15565b60405180910390f35b6101ee610871565b6040516101fb9190610c2b565b60405180910390f35b61021e60048036038101906102199190610ce6565b6108ff565b60405161022b9190610d41565b60405180910390f35b61024e60048036038101906102499190610e30565b610ad9565b60405161025b9190610d6b565b60405180910390f35b6001805461027190610e9f565b80601f016020809104026020016040519081016040528092919081815260200182805461029d90610e9f565b80156102ea5780601f106102bf576101008083540402835291602001916102ea565b820191906000526020600020905b8154815290600101906020018083116102cd57829003601f168201915b505050505081565b600082600073ffffffffffffffffffffffffffffffffffffffff168173ffffffffffffffffffffffffffffffffffffffff160361032e57600080fd5b82600560003373ffffffffffffffffffffffffffffffffffffffff1673ffffffffffffffffffffffffffffffffffffffff1681526020019081526020016000205410156103b0576040517f08c379a00000000000000000000000000000000000000000000000000000000081526004016103a790610f1c565b60405180910390fd5b82600660003373ffffffffffffffffffffffffffffffffffffffff1673ffffffffffffffffffffffffffffffffffffffff16815260200190815260200160002060008673ffffffffffffffffffffffffffffffffffffffff1673ffffffffffffffffffffffffffffffffffffffff168152602001908152602001600020600082825461043c9190610f6b565b925050819055508373ffffffffffffffffffffffffffffffffffffffff163373ffffffffffffffffffffffffffffffffffffffff167f8c5be1e5ebec7d5bd14f71427d1e84f3dd0314c0f7b2291e5b200ac8c7c3b925856040516104a09190610d6b565b60405180910390a3600191505092915050565b60045481565b600082600073ffffffffffffffffffffffffffffffffffffffff168173ffffffffffffffffffffffffffffffffffffffff16036104f557600080fd5b82600660008773ffffffffffffffffffffffffffffffffffffffff1673ffffffffffffffffffffffffffffffffffffffff16815260200190815260200160002060003373ffffffffffffffffffffffffffffffffffffffff1673ffffffffffffffffffffffffffffffffffffffff1681526020019081526020016000205410156105b4576040517f08c379a00000000000000000000000000000000000000000000000000000000081526004016105ab90610feb565b60405180910390fd5b82600560008773ffffffffffffffffffffffffffffffffffffffff1673ffffffffffffffffffffffffffffffffffffffff168152602001908152602001600020541015610636576040517f08c379a000000000000000000000000000000000000000000000000000000000815260040161062d90611057565b60405180910390fd5b82600560008773ffffffffffffffffffffffffffffffffffffffff1673ffffffffffffffffffffffffffffffffffffffff16815260200190815260200160002060008282546106859190611077565b9250508190555082600660008773ffffffffffffffffffffffffffffffffffffffff1673ffffffffffffffffffffffffffffffffffffffff16815260200190815260200160002060003373ffffffffffffffffffffffffffffffffffffffff1673ffffffffffffffffffffffffffffffffffffffff16815260200190815260200160002060008282546107189190611077565b9250508190555082600560008673ffffffffffffffffffffffffffffffffffffffff1673ffffffffffffffffffffffffffffffffffffffff168152602001908152602001600020600082825461076e9190610f6b565b925050819055508373ffffffffffffffffffffffffffffffffffffffff168573ffffffffffffffffffffffffffffffffffffffff167fddf252ad1be2c89b69c2b068fc378daa952ba7f163c4a11628f55a4df523b3ef856040516107d29190610d6b565b60405180910390a360019150509392505050565b60056020528060005260406000206000915090505481565b60035481565b6000600560008373ffffffffffffffffffffffffffffffffffffffff1673ffffffffffffffffffffffffffffffffffffffff168152602001908152602001600020549050919050565b60008054906101000a900473ffffffffffffffffffffffffffffffffffffffff1681565b6002805461087e90610e9f565b80601f01602080910402602001604051908101604052809291908181526020018280546108aa90610e9f565b80156108f75780601f106108cc576101008083540402835291602001916108f7565b820191906000526020600020905b8154815290600101906020018083116108da57829003601f168201915b505050505081565b600082600073ffffffffffffffffffffffffffffffffffffffff168173ffffffffffffffffffffffffffffffffffffffff160361093b57600080fd5b82600560003373ffffffffffffffffffffffffffffffffffffffff1673ffffffffffffffffffffffffffffffffffffffff1681526020019081526020016000205410156109bd576040517f08c379a00000000000000000000000000000000000000000000000000000000081526004016109b490611057565b60405180910390fd5b82600560008673ffffffffffffffffffffffffffffffffffffffff1673ffffffffffffffffffffffffffffffffffffffff1681526020019081526020016000206000828254610a0c9190610f6b565b9250508190555082600560003373ffffffffffffffffffffffffffffffffffffffff1673ffffffffffffffffffffffffffffffffffffffff1681526020019081526020016000206000828254610a629190611077565b925050819055508373ffffffffffffffffffffffffffffffffffffffff163373ffffffffffffffffffffffffffffffffffffffff167fddf252ad1be2c89b69c2b068fc378daa952ba7f163c4a11628f55a4df523b3ef85604051610ac69190610d6b565b60405180910390a3600191505092915050565b600081600073ffffffffffffffffffffffffffffffffffffffff168173ffffffffffffffffffffffffffffffffffffffff1603610b1557600080fd5b600660008573ffffffffffffffffffffffffffffffffffffffff1673ffffffffffffffffffffffffffffffffffffffff16815260200190815260200160002060008473ffffffffffffffffffffffffffffffffffffffff1673ffffffffffffffffffffffffffffffffffffffff1681526020019081526020016000205491505092915050565b600081519050919050565b600082825260208201905092915050565b60005b83811015610bd5578082015181840152602081019050610bba565b60008484015250505050565b6000601f19601f8301169050919050565b6000610bfd82610b9b565b610c078185610ba6565b9350610c17818560208601610bb7565b610c2081610be1565b840191505092915050565b60006020820190508181036000830152610c458184610bf2565b905092915050565b600080fd5b600073ffffffffffffffffffffffffffffffffffffffff82169050919050565b6000610c7d82610c52565b9050919050565b610c8d81610c72565b8114610c9857600080fd5b50565b600081359050610caa81610c84565b92915050565b6000819050919050565b610cc381610cb0565b8114610cce57600080fd5b50565b600081359050610ce081610cba565b92915050565b60008060408385031215610cfd57610cfc610c4d565b5b6000610d0b85828601610c9b565b9250506020610d1c85828601610cd1565b9150509250929050565b60008115159050919050565b610d3b81610d26565b82525050565b6000602082019050610d566000830184610d32565b92915050565b610d6581610cb0565b82525050565b6000602082019050610d806000830184610d5c565b92915050565b600080600060608486031215610d9f57610d9e610c4d565b5b6000610dad86828701610c9b565b9350506020610dbe86828701610c9b565b9250506040610dcf86828701610cd1565b9150509250925092565b600060208284031215610def57610dee610c4d565b5b6000610dfd84828501610c9b565b91505092915050565b610e0f81610c72565b82525050565b6000602082019050610e2a6000830184610e06565b92915050565b60008060408385031215610e4757610e46610c4d565b5b6000610e5585828601610c9b565b9250506020610e6685828601610c9b565b9150509250929050565b7f4e487b7100000000000000000000000000000000000000000000000000000000600052602260045260246000fd5b60006002820490506001821680610eb757607f821691505b602082108103610eca57610ec9610e70565b5b50919050565b7f496e73756666696369656e7420546f6b656e0000000000000000000000000000600082015250565b6000610f06601283610ba6565b9150610f1182610ed0565b602082019050919050565b60006020820190508181036000830152610f3581610ef9565b9050919050565b7f4e487b7100000000000000000000000000000000000000000000000000000000600052601160045260246000fd5b6000610f7682610cb0565b9150610f8183610cb0565b9250828201905080821115610f9957610f98610f3c565b5b92915050565b7f496e73756666696369656e7420416d6f756e7400000000000000000000000000600082015250565b6000610fd5601383610ba6565b9150610fe082610f9f565b602082019050919050565b6000602082019050818103600083015261100481610fc8565b9050919050565b7f496e73756666696369656e7420546f6b656e20416d6f756e7400000000000000600082015250565b6000611041601983610ba6565b915061104c8261100b565b602082019050919050565b6000602082019050818103600083015261107081611034565b9050919050565b600061108282610cb0565b915061108d83610cb0565b92508282039050818111156110a5576110a4610f3c565b5b9291505056fea2646970667358221220c2d763b0bbbdda68e5e1b22cf6d6cf4db50fb5b94052cb305327fd8d0fce5c5164736f6c63430008130033",
  "linkReferences": {},
  "deployedLinkReferences": {}
}